:100000000C9461000C9473000C9473000C947300B6
:100010000C9473000C9473000C9473000C94730094
:100020000C9473000C9473000C9473000C94730084
:100030000C9473000C9473000C9473000C94730074
:100040000C945E010C9473000C9473000C94730078
:100050000C9473000C9473000C9473000C94730054
:100060000C9473000C947300000000002300260021
:10007000290000000000240027002A0000000000E2
:10008000250028002B0004040404040404040202D4
:100090000202020203030303030301020408102007
:1000A0004080010204081020010204081020000012
:1000B0000008000201000003040700000000000027
:1000C000000011241FBECFEFD8E0DEBFCDBF21E07E
:1000D000A0E0B1E001C01D92AE33B207E1F70E948B
:1000E000A8010C947A050C940000833081F028F468
:1000F000813099F08230A9F008958730A9F08830D6
:10010000C9F08430B1F4809180008F7D03C080916C
:1001100080008F7780938000089584B58F7784BDA9
:10012000089584B58F7DFBCF8091B0008F77809349
:10013000B00008958091B0008F7DF9CF1F93CF93C9
:10014000DF93282F30E0F901E255FF4F8491F90148
:10015000E656FF4FD491F901EA57FF4FC491CC23E3
:10016000A9F0162F81110E947500EC2FF0E0EE0F20
:10017000FF1FE458FF4FA591B4918FB7F894EC910D
:10018000111108C0D095DE23DC938FBFDF91CF9192
:100190001F910895DE2BF8CFCF93DF9390E0FC0101
:1001A000E656FF4F24918A579F4FFC018491882384
:1001B000C9F090E0880F991FFC01EE58FF4FA59100
:1001C000B491FC01E458FF4FC591D49161110DC069
:1001D0009FB7F8948C91209582238C938881282353
:1001E00028839FBFDF91CF910895623051F49FB76C
:1001F000F8943C91822F809583238C93E8812E2B59
:10020000EFCF8FB7F894EC912E2B2C938FBFEACFC2
:10021000662319F061E00C949E0060E0FCCFCF9261
:10022000DF92EF92FF926B017C019F7720E030E03C
:1002300040E859E50E94070487FF2BC020E030E02A
:1002400040E05FE3C701B6010E94080587FD0EC0CC
:1002500020E030E040E05FE3C701B6010E94840384
:10026000FF90EF90DF90CF900C943B0420E030E0C3
:1002700040E05FEBC701B6010E940805181684F440
:1002800020E030E0A901C701B6010E940D056B0115
:100290007C01C701B601FF90EF90DF90CF900895E9
:1002A00020E030E040E05FE3C701B6010E94830335
:1002B000FF90EF90DF90CF900C94F0031F920F927D
:1002C0000FB60F9211242F933F938F939F93AF9369
:1002D000BF9380913A0190913B01A0913C01B09174
:1002E0003D013091390123E0230F2D3758F5019658
:1002F000A11DB11D2093390180933A0190933B01D8
:10030000A0933C01B0933D0180913501909136015D
:10031000A0913701B09138010196A11DB11D8093C4
:10032000350190933601A0933701B0933801BF9106
:10033000AF919F918F913F912F910F900FBE0F9092
:100340001F90189526E8230F0296A11DB11DD2CF4C
:10035000789484B5826084BD84B5816084BD85B5A0
:10036000826085BD85B5816085BD80916E008160AC
:1003700080936E0010928100809181008260809352
:100380008100809181008160809381008091800054
:100390008160809380008091B10084608093B1007F
:1003A0008091B00081608093B00080917A00846079
:1003B00080937A0080917A00826080937A008091A5
:1003C0007A00816080937A0080917A0080688093BF
:1003D0007A001092C10010921C01C12CD12C760120
:1003E000C394C0921D01D0921E01E0921F01F092B1
:1003F000200162E088E00E94CC00C1E0C0932101AE
:1004000010921401C0921501D0921601E0921701CA
:10041000F092180161E089E00E94CC00C0931901BC
:1004200010920C01C0920D01D0920E01E0920F01CA
:10043000F092100161E086E00E94CC00C0931101AF
:1004400010920401C0920501D0920601E0920701CA
:10045000F092080161E082E00E94CC00C0930901A3
:1004600032EA232E30E0332E4EE8A42E40E0B42EA4
:1004700000E010E0C12CD12C50E8E52E5FE3F52E12
:10048000D1E093E0992E809103018F5F843608F0CC
:10049000B2C080930301C0910301C111A5C0E6EB76
:1004A000F0E08491F1017490F5016490662079F098
:1004B00081110E947500E62DF0E0EE0FFF1FE85954
:1004C000FF4FA591B4918C91782291E009F490E0CE
:1004D000809134018F3018F48F5F809334018091C4
:1004E000300181118BC0D093300182E080933101C3
:1004F00090923301C0922401D0922501E09226010E
:10050000F0922701609124017091250180912601CC
:10051000909127010E940F012B013C0120E030E067
:1005200040E853E40E9407046FEF87FF0EC020E00D
:1005300030E0A901C301B2010E94080560E087FD17
:1005400004C0C301B2010E940C0489E00E940801AA
:10055000609128017091290180912A0190912B01CD
:100560000E940F012B013C0120E030E040E853E401
:100570000E9407046FEF87FF0EC020E030E0A90162
:10058000C301B2010E94080560E087FD04C0C301F9
:10059000B2010E940C0486E00E94080160912C01C7
:1005A00070912D0180912E0190912F010E940F01D9
:1005B0002B013C0120E030E040E853E40E940704B6
:1005C00087FF9FC020E030E0A901C301B2010E9473
:1005D000080587FD05C0C301B2010E940C04C62FA7
:1005E0006C2F82E00E9408010115110509F44BCF20
:1005F0000E94000046CF109203014DCF809131013F
:10060000813021F5911103C0109232016ECF90918B
:10061000340120913201213049F49A3008F472CF2C
:100620001092340182E08093320164CF9A3008F452
:1006300069CF1092340180933201109224011092FC
:10064000250110922601109227015CCF8091330181
:100650009923E1F0823089F0833051F0813051F4F8
:10066000109228011092290110922A0110922B0158
:1006700010923301D0933101D3CF10922C011092FC
:100680002D0110922E0110922F01F2CF8130B9F07E
:10069000823071F1109224011092250110922601EE
:1006A0001092270110923401D0933301C092280197
:1006B000D0922901E0922A01F0922B0123CF809160
:1006C00034018A3008F41ECF1092280110922901BB
:1006D00010922A0110922B0182E080933301C09284
:1006E0002C01D0922D01E0922E01F0922F010ACF21
:1006F00010922C0110922D0110922E0110922F01B8
:10070000F7CECFEF6DCF5058BB27AA270E949B038F
:100710000C94B6040E94A80438F00E94AF0420F0A4
:1007200039F49F3F19F426F40C94A5040EF4E095D7
:10073000E7FB0C947604E92F0E94C70458F3BA171C
:10074000620773078407950720F079F4A6F50C94E7
:1007500001050EF4E0950B2EBA2FA02D0B01B90167
:1007600090010C01CA01A0011124FF27591B99F027
:10077000593F50F4503E68F11A16F040A22F232F33
:10078000342F4427585FF3CF469537952795A79583
:10079000F0405395C9F77EF41F16BA0B620B730B2A
:1007A000840BBAF09150A1F0FF0FBB1F661F771F9B
:1007B000881FC2F70EC0BA0F621F731F841F48F450
:1007C000879577956795B795F7959E3F08F0B0CFD9
:1007D0009395880F08F09927EE0F979587950895C0
:1007E0000E94E90490F09F3748F4911116F40C949C
:1007F000020560E070E080E89FE3089526F01B1694
:10080000611D711D811D0C947C040C9497040E9441
:10081000520408F481E008950E94CF0488F09F57A5
:1008200098F0B92F9927B751B0F0E1F0660F771F14
:10083000881F991F1AF0BA95C9F714C0B13091F00A
:100840000E940105B1E008950C940105672F782FEF
:100850008827B85F39F0B93FCCF3869577956795CF
:10086000B395D9F73EF490958095709561957F4F3B
:100870008F4F9F4F08950E94E90490F09F3748F4EE
:10088000911116F00C94020560E070E080E89FEB97
:10089000089526F41B16611D711D811D0C947C04A6
:1008A0000C949704990F0008550FAA0BE0E8FEEF8F
:1008B00016161706E807F907C0F012161306E40724
:1008C000F50798F0621B730B840B950B39F40A261D
:1008D00061F0232B242B252B21F408950A2609F4FB
:1008E000A140A6958FEF811D811D089597F99F67FF
:1008F00080E870E060E00895882371F4772321F0A8
:100900009850872B762F07C0662311F499270DC0C6
:100910009051862B70E060E02AF09A95660F771F61
:10092000881FDAF7880F9695879597F908959F3F66
:1009300031F0915020F4879577956795B795880F9A
:10094000911D9695879597F908959FEF80EC0895EE
:1009500000240A941616170618060906089500249E
:100960000A9412161306140605060895092E039418
:10097000000C11F4882352F0BB0F40F4BF2B11F48C
:1009800060FF04C06F5F7F4F8F4F9F4F089557FDEB
:100990009058440F551F59F05F3F71F04795880FED
:1009A00097FB991F61F09F3F79F087950895121684
:1009B00013061406551FF2CF4695F1DF08C0161630
:1009C00017061806991FF1CF8695710561050894E1
:1009D00008950E94CF04A0F0BEE7B91788F4BB27A2
:1009E0009F3860F41616B11D672F782F8827985FFF
:1009F000F7CF869577956795B11D93959639C8F38E
:100A00000895E894BB2766277727CB0197F90895C7
:100A10000E94520408F48FEF08950E9420050C9460
:100A2000B6040E94A80438F00E94AF0420F0952379
:100A300011F00C9476040C94A50411240C94020576
:100A40000E94C70470F3959FC1F3950F50E0551FA6
:100A5000629FF001729FBB27F00DB11D639FAA2713
:100A6000F00DB11DAA1F649F6627B00DA11D661F62
:100A7000829F2227B00DA11D621F739FB00DA11D83
:100A8000621F839FA00D611D221F749F3327A00D3D
:100A9000611D231F849F600D211D822F762F6A2FD9
:100AA00011249F5750409AF0F1F088234AF0EE0F3E
:100AB000FF1FBB1F661F771F881F91505040A9F76B
:100AC0009E3F510580F00C9476040C9402055F3F24
:100AD000E4F3983ED4F3869577956795B795F795A7
:100AE000E7959F5FC1F7FE2B880F911D969587951F
:080AF00097F90895F894FFCF77
:00000001FF
